{
  "contractName": "EducationContract",
  "abi": [
    {
      "constant": true,
      "inputs": [
        {
          "internalType": "uint256",
          "name": "",
          "type": "uint256"
        }
      ],
      "name": "record",
      "outputs": [
        {
          "internalType": "string",
          "name": "record_id",
          "type": "string"
        },
        {
          "internalType": "string",
          "name": "record_name",
          "type": "string"
        },
        {
          "internalType": "string",
          "name": "description",
          "type": "string"
        },
        {
          "internalType": "string",
          "name": "timestamp",
          "type": "string"
        },
        {
          "internalType": "string",
          "name": "ipfsHash",
          "type": "string"
        }
      ],
      "payable": false,
      "stateMutability": "view",
      "type": "function"
    },
    {
      "constant": true,
      "inputs": [
        {
          "internalType": "address",
          "name": "",
          "type": "address"
        },
        {
          "internalType": "uint256",
          "name": "",
          "type": "uint256"
        }
      ],
      "name": "students",
      "outputs": [
        {
          "internalType": "string",
          "name": "record_id",
          "type": "string"
        },
        {
          "internalType": "string",
          "name": "record_name",
          "type": "string"
        },
        {
          "internalType": "string",
          "name": "description",
          "type": "string"
        },
        {
          "internalType": "string",
          "name": "timestamp",
          "type": "string"
        },
        {
          "internalType": "string",
          "name": "ipfsHash",
          "type": "string"
        }
      ],
      "payable": false,
      "stateMutability": "view",
      "type": "function"
    },
    {
      "constant": false,
      "inputs": [
        {
          "internalType": "string",
          "name": "_record_id",
          "type": "string"
        },
        {
          "internalType": "address",
          "name": "_student",
          "type": "address"
        },
        {
          "internalType": "string",
          "name": "_record_name",
          "type": "string"
        },
        {
          "internalType": "string",
          "name": "_description",
          "type": "string"
        },
        {
          "internalType": "string",
          "name": "_timestamp",
          "type": "string"
        },
        {
          "internalType": "string",
          "name": "_ipfsHash",
          "type": "string"
        }
      ],
      "name": "addReport",
      "outputs": [
        {
          "internalType": "uint256",
          "name": "",
          "type": "uint256"
        }
      ],
      "payable": false,
      "stateMutability": "nonpayable",
      "type": "function"
    },
    {
      "constant": true,
      "inputs": [
        {
          "internalType": "address",
          "name": "_id",
          "type": "address"
        }
      ],
      "name": "getAllrecordDetails",
      "outputs": [
        {
          "components": [
            {
              "internalType": "string",
              "name": "record_id",
              "type": "string"
            },
            {
              "internalType": "string",
              "name": "record_name",
              "type": "string"
            },
            {
              "internalType": "string",
              "name": "description",
              "type": "string"
            },
            {
              "internalType": "string",
              "name": "timestamp",
              "type": "string"
            },
            {
              "internalType": "string",
              "name": "ipfsHash",
              "type": "string"
            }
          ],
          "internalType": "struct EducationContract.RecordDetails[]",
          "name": "",
          "type": "tuple[]"
        }
      ],
      "payable": false,
      "stateMutability": "view",
      "type": "function"
    }
  ],
  "bytecode": "0x608060405234801561001057600080fd5b50611453806100206000396000f3fe608060405234801561001057600080fd5b506004361061004c5760003560e01c80631c0c4455146100515780632c16cd8a146100815780632eb36154146100b557806358b88d4b146100e5575b600080fd5b61006b60048036036100669190810190610eb6565b610119565b60405161007891906111e1565b60405180910390f35b61009b6004803603610096919081019061101c565b6105ac565b6040516100ac959493929190611203565b60405180910390f35b6100cf60048036036100ca9190810190610f1b565b6108e7565b6040516100dc9190611279565b60405180910390f35b6100ff60048036036100fa9190810190610edf565b610a1c565b604051610110959493929190611203565b60405180910390f35b606080600160008473ffffffffffffffffffffffffffffffffffffffff1673ffffffffffffffffffffffffffffffffffffffff1681526020019081526020016000208054905060405190808252806020026020018201604052801561019857816020015b610185610d64565b81526020019060019003908161017d5790505b50905060008090505b600160008573ffffffffffffffffffffffffffffffffffffffff1673ffffffffffffffffffffffffffffffffffffffff168152602001908152602001600020805490508110156105a2576000600160008673ffffffffffffffffffffffffffffffffffffffff1673ffffffffffffffffffffffffffffffffffffffff168152602001908152602001600020828154811061023757fe5b90600052602060002090600502019050806040518060a0016040529081600082018054600181600116156101000203166002900480601f0160208091040260200160405190810160405280929190818152602001828054600181600116156101000203166002900480156102ec5780601f106102c1576101008083540402835291602001916102ec565b820191906000526020600020905b8154815290600101906020018083116102cf57829003601f168201915b50505050508152602001600182018054600181600116156101000203166002900480601f01602080910402602001604051908101604052809291908181526020018280546001816001161561010002031660029004801561038e5780601f106103635761010080835404028352916020019161038e565b820191906000526020600020905b81548152906001019060200180831161037157829003601f168201915b50505050508152602001600282018054600181600116156101000203166002900480601f0160208091040260200160405190810160405280929190818152602001828054600181600116156101000203166002900480156104305780601f1061040557610100808354040283529160200191610430565b820191906000526020600020905b81548152906001019060200180831161041357829003601f168201915b50505050508152602001600382018054600181600116156101000203166002900480601f0160208091040260200160405190810160405280929190818152602001828054600181600116156101000203166002900480156104d25780601f106104a7576101008083540402835291602001916104d2565b820191906000526020600020905b8154815290600101906020018083116104b557829003601f168201915b50505050508152602001600482018054600181600116156101000203166002900480601f0160208091040260200160405190810160405280929190818152602001828054600181600116156101000203166002900480156105745780601f1061054957610100808354040283529160200191610574565b820191906000526020600020905b81548152906001019060200180831161055757829003601f168201915b50505050508152505083838151811061058957fe5b60200260200101819052505080806001019150506101a1565b5080915050919050565b600081815481106105b957fe5b9060005260206000209060050201600091509050806000018054600181600116156101000203166002900480601f0160208091040260200160405190810160405280929190818152602001828054600181600116156101000203166002900480156106655780601f1061063a57610100808354040283529160200191610665565b820191906000526020600020905b81548152906001019060200180831161064857829003601f168201915b505050505090806001018054600181600116156101000203166002900480601f0160208091040260200160405190810160405280929190818152602001828054600181600116156101000203166002900480156107035780601f106106d857610100808354040283529160200191610703565b820191906000526020600020905b8154815290600101906020018083116106e657829003601f168201915b505050505090806002018054600181600116156101000203166002900480601f0160208091040260200160405190810160405280929190818152602001828054600181600116156101000203166002900480156107a15780601f10610776576101008083540402835291602001916107a1565b820191906000526020600020905b81548152906001019060200180831161078457829003601f168201915b505050505090806003018054600181600116156101000203166002900480601f01602080910402602001604051908101604052809291908181526020018280546001816001161561010002031660029004801561083f5780601f106108145761010080835404028352916020019161083f565b820191906000526020600020905b81548152906001019060200180831161082257829003601f168201915b505050505090806004018054600181600116156101000203166002900480601f0160208091040260200160405190810160405280929190818152602001828054600181600116156101000203166002900480156108dd5780601f106108b2576101008083540402835291602001916108dd565b820191906000526020600020905b8154815290600101906020018083116108c057829003601f168201915b5050505050905085565b6000600160008773ffffffffffffffffffffffffffffffffffffffff1673ffffffffffffffffffffffffffffffffffffffff1681526020019081526020016000206040518060a0016040528089815260200187815260200186815260200185815260200184815250908060018154018082558091505090600182039060005260206000209060050201600090919290919091506000820151816000019080519060200190610996929190610d93565b5060208201518160010190805190602001906109b3929190610d93565b5060408201518160020190805190602001906109d0929190610d93565b5060608201518160030190805190602001906109ed929190610d93565b506080820151816004019080519060200190610a0a929190610d93565b50505050600190509695505050505050565b60016020528160005260406000208181548110610a3557fe5b906000526020600020906005020160009150915050806000018054600181600116156101000203166002900480601f016020809104026020016040519081016040528092919081815260200182805460018160011615610100020316600290048015610ae25780601f10610ab757610100808354040283529160200191610ae2565b820191906000526020600020905b815481529060010190602001808311610ac557829003601f168201915b505050505090806001018054600181600116156101000203166002900480601f016020809104026020016040519081016040528092919081815260200182805460018160011615610100020316600290048015610b805780601f10610b5557610100808354040283529160200191610b80565b820191906000526020600020905b815481529060010190602001808311610b6357829003601f168201915b505050505090806002018054600181600116156101000203166002900480601f016020809104026020016040519081016040528092919081815260200182805460018160011615610100020316600290048015610c1e5780601f10610bf357610100808354040283529160200191610c1e565b820191906000526020600020905b815481529060010190602001808311610c0157829003601f168201915b505050505090806003018054600181600116156101000203166002900480601f016020809104026020016040519081016040528092919081815260200182805460018160011615610100020316600290048015610cbc5780601f10610c9157610100808354040283529160200191610cbc565b820191906000526020600020905b815481529060010190602001808311610c9f57829003601f168201915b505050505090806004018054600181600116156101000203166002900480601f016020809104026020016040519081016040528092919081815260200182805460018160011615610100020316600290048015610d5a5780601f10610d2f57610100808354040283529160200191610d5a565b820191906000526020600020905b815481529060010190602001808311610d3d57829003601f168201915b5050505050905085565b6040518060a0016040528060608152602001606081526020016060815260200160608152602001606081525090565b828054600181600116156101000203166002900490600052602060002090601f016020900481019282601f10610dd457805160ff1916838001178555610e02565b82800160010185558215610e02579182015b82811115610e01578251825591602001919060010190610de6565b5b509050610e0f9190610e13565b5090565b610e3591905b80821115610e31576000816000905550600101610e19565b5090565b90565b600081359050610e47816113e2565b92915050565b600082601f830112610e5e57600080fd5b8135610e71610e6c826112c1565b611294565b91508082526020830160208301858383011115610e8d57600080fd5b610e9883828461138f565b50505092915050565b600081359050610eb0816113f9565b92915050565b600060208284031215610ec857600080fd5b6000610ed684828501610e38565b91505092915050565b60008060408385031215610ef257600080fd5b6000610f0085828601610e38565b9250506020610f1185828601610ea1565b9150509250929050565b60008060008060008060c08789031215610f3457600080fd5b600087013567ffffffffffffffff811115610f4e57600080fd5b610f5a89828a01610e4d565b9650506020610f6b89828a01610e38565b955050604087013567ffffffffffffffff811115610f8857600080fd5b610f9489828a01610e4d565b945050606087013567ffffffffffffffff811115610fb157600080fd5b610fbd89828a01610e4d565b935050608087013567ffffffffffffffff811115610fda57600080fd5b610fe689828a01610e4d565b92505060a087013567ffffffffffffffff81111561100357600080fd5b61100f89828a01610e4d565b9150509295509295509295565b60006020828403121561102e57600080fd5b600061103c84828501610ea1565b91505092915050565b60006110518383611140565b905092915050565b6000611064826112fd565b61106e8185611320565b935083602082028501611080856112ed565b8060005b858110156110bc578484038952815161109d8582611045565b94506110a883611313565b925060208a01995050600181019050611084565b50829750879550505050505092915050565b60006110d982611308565b6110e38185611331565b93506110f381856020860161139e565b6110fc816113d1565b840191505092915050565b600061111282611308565b61111c8185611342565b935061112c81856020860161139e565b611135816113d1565b840191505092915050565b600060a083016000830151848203600086015261115d82826110ce565b9150506020830151848203602086015261117782826110ce565b9150506040830151848203604086015261119182826110ce565b915050606083015184820360608601526111ab82826110ce565b915050608083015184820360808601526111c582826110ce565b9150508091505092915050565b6111db81611385565b82525050565b600060208201905081810360008301526111fb8184611059565b905092915050565b600060a082019050818103600083015261121d8188611107565b905081810360208301526112318187611107565b905081810360408301526112458186611107565b905081810360608301526112598185611107565b9050818103608083015261126d8184611107565b90509695505050505050565b600060208201905061128e60008301846111d2565b92915050565b6000604051905081810181811067ffffffffffffffff821117156112b757600080fd5b8060405250919050565b600067ffffffffffffffff8211156112d857600080fd5b601f19601f8301169050602081019050919050565b6000819050602082019050919050565b600081519050919050565b600081519050919050565b6000602082019050919050565b600082825260208201905092915050565b600082825260208201905092915050565b600082825260208201905092915050565b600061135e82611365565b9050919050565b600073ffffffffffffffffffffffffffffffffffffffff82169050919050565b6000819050919050565b82818337600083830152505050565b60005b838110156113bc5780820151818401526020810190506113a1565b838111156113cb576000848401525b50505050565b6000601f19601f8301169050919050565b6113eb81611353565b81146113f657600080fd5b50565b61140281611385565b811461140d57600080fd5b5056fea365627a7a723158201853ab15033d05d94301afa1d675576112b7d40705373e5a6beccae1cf8947646c6578706572696d656e74616cf564736f6c63430005100040",
  "source": "pragma solidity ^0.5.0;\npragma experimental ABIEncoderV2;\n\ncontract EducationContract {\n  struct RecordDetails {\n        string record_id;\n        string record_name;\n        string description;\n        string timestamp;\n        string ipfsHash;\n    }\n\n    RecordDetails[] public record;\n    mapping(address => RecordDetails[]) public students;\n\n    function addReport(string memory _record_id,address _student, string memory _record_name, string memory _description, string memory _timestamp, string memory _ipfsHash) public returns(uint) {\n\n        students[_student].push(RecordDetails(_record_id,_record_name,_description,_timestamp,_ipfsHash));\n        return 1;\n    }\n\n    //function getPatCount() public view returns(uint) {\n    //    return record.length;\n    //}\n\n\n    function getAllrecordDetails(address _id) public view returns (RecordDetails[] memory)\n    {\n        RecordDetails[] memory id = new RecordDetails[](students[_id].length);\n        for (uint i = 0; i < students[_id].length; i++) {\n            RecordDetails storage temprecord = students[_id][i];\n            id[i] = temprecord;\n        }\n        return id;\n    }\n\n    //function getPat(uint index) public view returns (uint, string memory, string memory,string memory, string memory)\n  //  {\n    //    return (record[index].record_id, record[index].record_name, record[index].description, record[index].timestamp, record[index].ipfsHash);\n  //  }\n\n    // function getPat2(uint index) public view returns(string memory, uint, string memory, string memory)\n    // {\n    //     return (record[index].par_rem, record[index].fee, record[index].message, record[index].ipfsHash);\n    // }\n}\n",
  "sourcePath": "/Users/venkateshbh/Desktop/17IT248/7/Crypt&Block/project/main/new1/Educational/contracts/EducationContract.sol",
  "compiler": {
    "name": "solc",
    "version": "0.5.16+commit.9c3226ce.Emscripten.clang"
  },
  "schemaVersion": "3.3.1",
  "updatedAt": "2020-11-03T14:51:35.851Z",
  "networkType": "ethereum",
  "devdoc": {
    "methods": {}
  },
  "userdoc": {
    "methods": {}
  }
}