{
  "contractName": "SimpleStorage",
  "abi": [
    {
      "constant": true,
      "inputs": [
        {
          "internalType": "address",
          "name": "",
          "type": "address"
        },
        {
          "internalType": "uint256",
          "name": "",
          "type": "uint256"
        }
      ],
      "name": "institute",
      "outputs": [
        {
          "internalType": "string",
          "name": "record_id",
          "type": "string"
        },
        {
          "internalType": "string",
          "name": "timestamp",
          "type": "string"
        },
        {
          "internalType": "string",
          "name": "record_code",
          "type": "string"
        },
        {
          "internalType": "string",
          "name": "description",
          "type": "string"
        }
      ],
      "payable": false,
      "stateMutability": "view",
      "type": "function"
    },
    {
      "constant": true,
      "inputs": [
        {
          "internalType": "uint256",
          "name": "",
          "type": "uint256"
        }
      ],
      "name": "record",
      "outputs": [
        {
          "internalType": "string",
          "name": "record_id",
          "type": "string"
        },
        {
          "internalType": "string",
          "name": "timestamp",
          "type": "string"
        },
        {
          "internalType": "string",
          "name": "record_code",
          "type": "string"
        },
        {
          "internalType": "string",
          "name": "description",
          "type": "string"
        }
      ],
      "payable": false,
      "stateMutability": "view",
      "type": "function"
    },
    {
      "constant": false,
      "inputs": [
        {
          "internalType": "string",
          "name": "_record_id",
          "type": "string"
        },
        {
          "internalType": "address",
          "name": "institute_id",
          "type": "address"
        },
        {
          "internalType": "string",
          "name": "_timestamp",
          "type": "string"
        },
        {
          "internalType": "string",
          "name": "_record_code",
          "type": "string"
        },
        {
          "internalType": "string",
          "name": "_description",
          "type": "string"
        }
      ],
      "name": "addrecordReport",
      "outputs": [
        {
          "internalType": "uint256",
          "name": "",
          "type": "uint256"
        }
      ],
      "payable": false,
      "stateMutability": "nonpayable",
      "type": "function"
    },
    {
      "constant": true,
      "inputs": [
        {
          "internalType": "address",
          "name": "_institute_id",
          "type": "address"
        }
      ],
      "name": "getAllrecordDetails",
      "outputs": [
        {
          "components": [
            {
              "internalType": "string",
              "name": "record_id",
              "type": "string"
            },
            {
              "internalType": "string",
              "name": "timestamp",
              "type": "string"
            },
            {
              "internalType": "string",
              "name": "record_code",
              "type": "string"
            },
            {
              "internalType": "string",
              "name": "description",
              "type": "string"
            }
          ],
          "internalType": "struct SimpleStorage.RecordDetails[]",
          "name": "",
          "type": "tuple[]"
        }
      ],
      "payable": false,
      "stateMutability": "view",
      "type": "function"
    }
  ],
  "bytecode": "0x608060405234801561001057600080fd5b506111ef806100206000396000f3fe608060405234801561001057600080fd5b506004361061004c5760003560e01c80631c0c4455146100515780632c16cd8a146100815780637eba9714146100b4578063ae2bdc6a146100e7575b600080fd5b61006b60048036036100669190810190610cab565b610117565b6040516100789190610f92565b60405180910390f35b61009b60048036036100969190810190610de7565b610508565b6040516100ab9493929190610fb4565b60405180910390f35b6100ce60048036036100c99190810190610cd4565b6107a5565b6040516100de9493929190610fb4565b60405180910390f35b61010160048036036100fc9190810190610d10565b610a4f565b60405161010e9190611015565b60405180910390f35b606080600160008473ffffffffffffffffffffffffffffffffffffffff1673ffffffffffffffffffffffffffffffffffffffff1681526020019081526020016000208054905060405190808252806020026020018201604052801561019657816020015b610183610b60565b81526020019060019003908161017b5790505b50905060008090505b600160008573ffffffffffffffffffffffffffffffffffffffff1673ffffffffffffffffffffffffffffffffffffffff168152602001908152602001600020805490508110156104fe576000600160008673ffffffffffffffffffffffffffffffffffffffff1673ffffffffffffffffffffffffffffffffffffffff168152602001908152602001600020828154811061023557fe5b9060005260206000209060040201905080604051806080016040529081600082018054600181600116156101000203166002900480601f0160208091040260200160405190810160405280929190818152602001828054600181600116156101000203166002900480156102ea5780601f106102bf576101008083540402835291602001916102ea565b820191906000526020600020905b8154815290600101906020018083116102cd57829003601f168201915b50505050508152602001600182018054600181600116156101000203166002900480601f01602080910402602001604051908101604052809291908181526020018280546001816001161561010002031660029004801561038c5780601f106103615761010080835404028352916020019161038c565b820191906000526020600020905b81548152906001019060200180831161036f57829003601f168201915b50505050508152602001600282018054600181600116156101000203166002900480601f01602080910402602001604051908101604052809291908181526020018280546001816001161561010002031660029004801561042e5780601f106104035761010080835404028352916020019161042e565b820191906000526020600020905b81548152906001019060200180831161041157829003601f168201915b50505050508152602001600382018054600181600116156101000203166002900480601f0160208091040260200160405190810160405280929190818152602001828054600181600116156101000203166002900480156104d05780601f106104a5576101008083540402835291602001916104d0565b820191906000526020600020905b8154815290600101906020018083116104b357829003601f168201915b5050505050815250508383815181106104e557fe5b602002602001018190525050808060010191505061019f565b5080915050919050565b6000818154811061051557fe5b9060005260206000209060040201600091509050806000018054600181600116156101000203166002900480601f0160208091040260200160405190810160405280929190818152602001828054600181600116156101000203166002900480156105c15780601f10610596576101008083540402835291602001916105c1565b820191906000526020600020905b8154815290600101906020018083116105a457829003601f168201915b505050505090806001018054600181600116156101000203166002900480601f01602080910402602001604051908101604052809291908181526020018280546001816001161561010002031660029004801561065f5780601f106106345761010080835404028352916020019161065f565b820191906000526020600020905b81548152906001019060200180831161064257829003601f168201915b505050505090806002018054600181600116156101000203166002900480601f0160208091040260200160405190810160405280929190818152602001828054600181600116156101000203166002900480156106fd5780601f106106d2576101008083540402835291602001916106fd565b820191906000526020600020905b8154815290600101906020018083116106e057829003601f168201915b505050505090806003018054600181600116156101000203166002900480601f01602080910402602001604051908101604052809291908181526020018280546001816001161561010002031660029004801561079b5780601f106107705761010080835404028352916020019161079b565b820191906000526020600020905b81548152906001019060200180831161077e57829003601f168201915b5050505050905084565b600160205281600052604060002081815481106107be57fe5b906000526020600020906004020160009150915050806000018054600181600116156101000203166002900480601f01602080910402602001604051908101604052809291908181526020018280546001816001161561010002031660029004801561086b5780601f106108405761010080835404028352916020019161086b565b820191906000526020600020905b81548152906001019060200180831161084e57829003601f168201915b505050505090806001018054600181600116156101000203166002900480601f0160208091040260200160405190810160405280929190818152602001828054600181600116156101000203166002900480156109095780601f106108de57610100808354040283529160200191610909565b820191906000526020600020905b8154815290600101906020018083116108ec57829003601f168201915b505050505090806002018054600181600116156101000203166002900480601f0160208091040260200160405190810160405280929190818152602001828054600181600116156101000203166002900480156109a75780601f1061097c576101008083540402835291602001916109a7565b820191906000526020600020905b81548152906001019060200180831161098a57829003601f168201915b505050505090806003018054600181600116156101000203166002900480601f016020809104026020016040519081016040528092919081815260200182805460018160011615610100020316600290048015610a455780601f10610a1a57610100808354040283529160200191610a45565b820191906000526020600020905b815481529060010190602001808311610a2857829003601f168201915b5050505050905084565b6000600160008673ffffffffffffffffffffffffffffffffffffffff1673ffffffffffffffffffffffffffffffffffffffff168152602001908152602001600020604051806080016040528088815260200186815260200185815260200184815250908060018154018082558091505090600182039060005260206000209060040201600090919290919091506000820151816000019080519060200190610af8929190610b88565b506020820151816001019080519060200190610b15929190610b88565b506040820151816002019080519060200190610b32929190610b88565b506060820151816003019080519060200190610b4f929190610b88565b505050506001905095945050505050565b6040518060800160405280606081526020016060815260200160608152602001606081525090565b828054600181600116156101000203166002900490600052602060002090601f016020900481019282601f10610bc957805160ff1916838001178555610bf7565b82800160010185558215610bf7579182015b82811115610bf6578251825591602001919060010190610bdb565b5b509050610c049190610c08565b5090565b610c2a91905b80821115610c26576000816000905550600101610c0e565b5090565b90565b600081359050610c3c8161117e565b92915050565b600082601f830112610c5357600080fd5b8135610c66610c618261105d565b611030565b91508082526020830160208301858383011115610c8257600080fd5b610c8d83828461112b565b50505092915050565b600081359050610ca581611195565b92915050565b600060208284031215610cbd57600080fd5b6000610ccb84828501610c2d565b91505092915050565b60008060408385031215610ce757600080fd5b6000610cf585828601610c2d565b9250506020610d0685828601610c96565b9150509250929050565b600080600080600060a08688031215610d2857600080fd5b600086013567ffffffffffffffff811115610d4257600080fd5b610d4e88828901610c42565b9550506020610d5f88828901610c2d565b945050604086013567ffffffffffffffff811115610d7c57600080fd5b610d8888828901610c42565b935050606086013567ffffffffffffffff811115610da557600080fd5b610db188828901610c42565b925050608086013567ffffffffffffffff811115610dce57600080fd5b610dda88828901610c42565b9150509295509295909350565b600060208284031215610df957600080fd5b6000610e0784828501610c96565b91505092915050565b6000610e1c8383610f0b565b905092915050565b6000610e2f82611099565b610e3981856110bc565b935083602082028501610e4b85611089565b8060005b85811015610e875784840389528151610e688582610e10565b9450610e73836110af565b925060208a01995050600181019050610e4f565b50829750879550505050505092915050565b6000610ea4826110a4565b610eae81856110cd565b9350610ebe81856020860161113a565b610ec78161116d565b840191505092915050565b6000610edd826110a4565b610ee781856110de565b9350610ef781856020860161113a565b610f008161116d565b840191505092915050565b60006080830160008301518482036000860152610f288282610e99565b91505060208301518482036020860152610f428282610e99565b91505060408301518482036040860152610f5c8282610e99565b91505060608301518482036060860152610f768282610e99565b9150508091505092915050565b610f8c81611121565b82525050565b60006020820190508181036000830152610fac8184610e24565b905092915050565b60006080820190508181036000830152610fce8187610ed2565b90508181036020830152610fe28186610ed2565b90508181036040830152610ff68185610ed2565b9050818103606083015261100a8184610ed2565b905095945050505050565b600060208201905061102a6000830184610f83565b92915050565b6000604051905081810181811067ffffffffffffffff8211171561105357600080fd5b8060405250919050565b600067ffffffffffffffff82111561107457600080fd5b601f19601f8301169050602081019050919050565b6000819050602082019050919050565b600081519050919050565b600081519050919050565b6000602082019050919050565b600082825260208201905092915050565b600082825260208201905092915050565b600082825260208201905092915050565b60006110fa82611101565b9050919050565b600073ffffffffffffffffffffffffffffffffffffffff82169050919050565b6000819050919050565b82818337600083830152505050565b60005b8381101561115857808201518184015260208101905061113d565b83811115611167576000848401525b50505050565b6000601f19601f8301169050919050565b611187816110ef565b811461119257600080fd5b50565b61119e81611121565b81146111a957600080fd5b5056fea365627a7a72315820a72452d8cf58acc6ffde22740e7eeb611bb1ca62848c96015c2f78a601a825a96c6578706572696d656e74616cf564736f6c63430005100040",
  "source": "pragma solidity >=0.4.22 <0.7.0;\npragma experimental ABIEncoderV2;\n\ncontract SimpleStorage {\n  struct RecordDetails {\n        string record_id;\n        string timestamp;\n        string record_code;\n        string description;\n    }\n\n    RecordDetails[] public record;\n    mapping(address => RecordDetails[]) public institute;\n\n    function addrecordReport(string memory _record_id,address institute_id, string memory _timestamp, string memory _record_code, string memory _description) public returns(uint) {\n\n\n\n        institute[institute_id].push(RecordDetails(_record_id,_timestamp,_record_code,_description));\n        return 1;\n    }\n\n  //  function getrecordCount() public view returns(uint) {\n    //    return record.length;\n  //  }\n\n  //  function getrecordBlock(uint index) public view returns (string memory, string memory, string memory, string memory)\n  //  {\n  //      return (record[index].record_id, record[index].timestamp, record[index].record_code, record[index].description);\n  //  }\n    function getAllrecordDetails(address _institute_id) public view returns (RecordDetails[] memory)\n    {\n        RecordDetails[] memory id = new RecordDetails[](institute[_institute_id].length);\n        for (uint i = 0; i < institute[_institute_id].length; i++) {\n            RecordDetails storage temprecord = institute[_institute_id][i];\n            id[i] = temprecord;\n        }\n        return id;\n    }\n}\n",
  "sourcePath": "/Users/venkateshbh/Desktop/17IT248/7/Crypt&Block/project/main/new1/Educational/contracts/SimpleStorage.sol",
  "compiler": {
    "name": "solc",
    "version": "0.5.16+commit.9c3226ce.Emscripten.clang"
  },
  "schemaVersion": "3.3.1",
  "updatedAt": "2020-11-03T14:51:35.845Z",
  "networkType": "ethereum",
  "devdoc": {
    "methods": {}
  },
  "userdoc": {
    "methods": {}
  }
}